{
  "_format": "hh-sol-artifact-1",
  "contractName": "MyNFT",
  "sourceName": "contracts/MyNFT.sol",
  "abi": [
    {
      "inputs": [
        {
          "internalType": "string",
          "name": "prompt",
          "type": "string"
        }
      ],
      "stateMutability": "nonpayable",
      "type": "constructor"
    },
    {
      "inputs": [],
      "name": "ApprovalCallerNotOwnerNorApproved",
      "type": "error"
    },
    {
      "inputs": [],
      "name": "ApprovalQueryForNonexistentToken",
      "type": "error"
    },
    {
      "inputs": [],
      "name": "BalanceQueryForZeroAddress",
      "type": "error"
    },
    {
      "inputs": [],
      "name": "MintERC2309QuantityExceedsLimit",
      "type": "error"
    },
    {
      "inputs": [],
      "name": "MintToZeroAddress",
      "type": "error"
    },
    {
      "inputs": [],
      "name": "MintZeroQuantity",
      "type": "error"
    },
    {
      "inputs": [],
      "name": "OwnerQueryForNonexistentToken",
      "type": "error"
    },
    {
      "inputs": [],
      "name": "OwnershipNotInitializedForExtraData",
      "type": "error"
    },
    {
      "inputs": [],
      "name": "TransferCallerNotOwnerNorApproved",
      "type": "error"
    },
    {
      "inputs": [],
      "name": "TransferFromIncorrectOwner",
      "type": "error"
    },
    {
      "inputs": [],
      "name": "TransferToNonERC721ReceiverImplementer",
      "type": "error"
    },
    {
      "inputs": [],
      "name": "TransferToZeroAddress",
      "type": "error"
    },
    {
      "inputs": [],
      "name": "URIQueryForNonexistentToken",
      "type": "error"
    },
    {
      "anonymous": false,
      "inputs": [
        {
          "indexed": true,
          "internalType": "address",
          "name": "owner",
          "type": "address"
        },
        {
          "indexed": true,
          "internalType": "address",
          "name": "approved",
          "type": "address"
        },
        {
          "indexed": true,
          "internalType": "uint256",
          "name": "tokenId",
          "type": "uint256"
        }
      ],
      "name": "Approval",
      "type": "event"
    },
    {
      "anonymous": false,
      "inputs": [
        {
          "indexed": true,
          "internalType": "address",
          "name": "owner",
          "type": "address"
        },
        {
          "indexed": true,
          "internalType": "address",
          "name": "operator",
          "type": "address"
        },
        {
          "indexed": false,
          "internalType": "bool",
          "name": "approved",
          "type": "bool"
        }
      ],
      "name": "ApprovalForAll",
      "type": "event"
    },
    {
      "anonymous": false,
      "inputs": [
        {
          "indexed": true,
          "internalType": "uint256",
          "name": "fromTokenId",
          "type": "uint256"
        },
        {
          "indexed": false,
          "internalType": "uint256",
          "name": "toTokenId",
          "type": "uint256"
        },
        {
          "indexed": true,
          "internalType": "address",
          "name": "from",
          "type": "address"
        },
        {
          "indexed": true,
          "internalType": "address",
          "name": "to",
          "type": "address"
        }
      ],
      "name": "ConsecutiveTransfer",
      "type": "event"
    },
    {
      "anonymous": false,
      "inputs": [
        {
          "indexed": true,
          "internalType": "address",
          "name": "from",
          "type": "address"
        },
        {
          "indexed": true,
          "internalType": "address",
          "name": "to",
          "type": "address"
        },
        {
          "indexed": true,
          "internalType": "uint256",
          "name": "tokenId",
          "type": "uint256"
        }
      ],
      "name": "Transfer",
      "type": "event"
    },
    {
      "inputs": [
        {
          "internalType": "address",
          "name": "to",
          "type": "address"
        },
        {
          "internalType": "uint256",
          "name": "tokenId",
          "type": "uint256"
        }
      ],
      "name": "approve",
      "outputs": [],
      "stateMutability": "payable",
      "type": "function"
    },
    {
      "inputs": [
        {
          "internalType": "address",
          "name": "owner",
          "type": "address"
        }
      ],
      "name": "balanceOf",
      "outputs": [
        {
          "internalType": "uint256",
          "name": "",
          "type": "uint256"
        }
      ],
      "stateMutability": "view",
      "type": "function"
    },
    {
      "inputs": [
        {
          "internalType": "uint256",
          "name": "tokenId",
          "type": "uint256"
        }
      ],
      "name": "getApproved",
      "outputs": [
        {
          "internalType": "address",
          "name": "",
          "type": "address"
        }
      ],
      "stateMutability": "view",
      "type": "function"
    },
    {
      "inputs": [
        {
          "internalType": "address",
          "name": "owner",
          "type": "address"
        },
        {
          "internalType": "address",
          "name": "operator",
          "type": "address"
        }
      ],
      "name": "isApprovedForAll",
      "outputs": [
        {
          "internalType": "bool",
          "name": "",
          "type": "bool"
        }
      ],
      "stateMutability": "view",
      "type": "function"
    },
    {
      "inputs": [],
      "name": "maxNFT",
      "outputs": [
        {
          "internalType": "uint256",
          "name": "",
          "type": "uint256"
        }
      ],
      "stateMutability": "view",
      "type": "function"
    },
    {
      "inputs": [
        {
          "internalType": "uint256",
          "name": "quantity",
          "type": "uint256"
        }
      ],
      "name": "mint",
      "outputs": [],
      "stateMutability": "payable",
      "type": "function"
    },
    {
      "inputs": [],
      "name": "name",
      "outputs": [
        {
          "internalType": "string",
          "name": "",
          "type": "string"
        }
      ],
      "stateMutability": "view",
      "type": "function"
    },
    {
      "inputs": [],
      "name": "owner",
      "outputs": [
        {
          "internalType": "address",
          "name": "",
          "type": "address"
        }
      ],
      "stateMutability": "view",
      "type": "function"
    },
    {
      "inputs": [
        {
          "internalType": "uint256",
          "name": "tokenId",
          "type": "uint256"
        }
      ],
      "name": "ownerOf",
      "outputs": [
        {
          "internalType": "address",
          "name": "",
          "type": "address"
        }
      ],
      "stateMutability": "view",
      "type": "function"
    },
    {
      "inputs": [],
      "name": "promptDescription",
      "outputs": [
        {
          "internalType": "string",
          "name": "",
          "type": "string"
        }
      ],
      "stateMutability": "view",
      "type": "function"
    },
    {
      "inputs": [
        {
          "internalType": "address",
          "name": "from",
          "type": "address"
        },
        {
          "internalType": "address",
          "name": "to",
          "type": "address"
        },
        {
          "internalType": "uint256",
          "name": "tokenId",
          "type": "uint256"
        }
      ],
      "name": "safeTransferFrom",
      "outputs": [],
      "stateMutability": "payable",
      "type": "function"
    },
    {
      "inputs": [
        {
          "internalType": "address",
          "name": "from",
          "type": "address"
        },
        {
          "internalType": "address",
          "name": "to",
          "type": "address"
        },
        {
          "internalType": "uint256",
          "name": "tokenId",
          "type": "uint256"
        },
        {
          "internalType": "bytes",
          "name": "_data",
          "type": "bytes"
        }
      ],
      "name": "safeTransferFrom",
      "outputs": [],
      "stateMutability": "payable",
      "type": "function"
    },
    {
      "inputs": [
        {
          "internalType": "address",
          "name": "operator",
          "type": "address"
        },
        {
          "internalType": "bool",
          "name": "approved",
          "type": "bool"
        }
      ],
      "name": "setApprovalForAll",
      "outputs": [],
      "stateMutability": "nonpayable",
      "type": "function"
    },
    {
      "inputs": [
        {
          "internalType": "bytes4",
          "name": "interfaceId",
          "type": "bytes4"
        }
      ],
      "name": "supportsInterface",
      "outputs": [
        {
          "internalType": "bool",
          "name": "",
          "type": "bool"
        }
      ],
      "stateMutability": "view",
      "type": "function"
    },
    {
      "inputs": [],
      "name": "symbol",
      "outputs": [
        {
          "internalType": "string",
          "name": "",
          "type": "string"
        }
      ],
      "stateMutability": "view",
      "type": "function"
    },
    {
      "inputs": [
        {
          "internalType": "uint256",
          "name": "tokenId",
          "type": "uint256"
        }
      ],
      "name": "tokenURI",
      "outputs": [
        {
          "internalType": "string",
          "name": "",
          "type": "string"
        }
      ],
      "stateMutability": "view",
      "type": "function"
    },
    {
      "inputs": [],
      "name": "totalSupply",
      "outputs": [
        {
          "internalType": "uint256",
          "name": "",
          "type": "uint256"
        }
      ],
      "stateMutability": "view",
      "type": "function"
    },
    {
      "inputs": [
        {
          "internalType": "address",
          "name": "from",
          "type": "address"
        },
        {
          "internalType": "address",
          "name": "to",
          "type": "address"
        },
        {
          "internalType": "uint256",
          "name": "tokenId",
          "type": "uint256"
        }
      ],
      "name": "transferFrom",
      "outputs": [],
      "stateMutability": "payable",
      "type": "function"
    }
  ],
  "bytecode": "0x60806040526005600955604051806080016040528060518152602001620025e760519139600b9081620000339190620003e8565b503480156200004157600080fd5b506040516200263838038062002638833981810160405281019062000067919062000633565b6040518060400160405280600581526020017f4d794e46540000000000000000000000000000000000000000000000000000008152506040518060400160405280600381526020017f4e465400000000000000000000000000000000000000000000000000000000008152508160029081620000e49190620003e8565b508060039081620000f69190620003e8565b50620001076200016960201b60201c565b600081905550505033600860006101000a81548173ffffffffffffffffffffffffffffffffffffffff021916908373ffffffffffffffffffffffffffffffffffffffff16021790555080600a9081620001619190620003e8565b505062000684565b600090565b600081519050919050565b7f4e487b7100000000000000000000000000000000000000000000000000000000600052604160045260246000fd5b7f4e487b7100000000000000000000000000000000000000000000000000000000600052602260045260246000fd5b60006002820490506001821680620001f057607f821691505b602082108103620002065762000205620001a8565b5b50919050565b60008190508160005260206000209050919050565b60006020601f8301049050919050565b600082821b905092915050565b600060088302620002707fffffffffffffffffffffffffffffffffffffffffffffffffffffffffffffffff8262000231565b6200027c868362000231565b95508019841693508086168417925050509392505050565b6000819050919050565b6000819050919050565b6000620002c9620002c3620002bd8462000294565b6200029e565b62000294565b9050919050565b6000819050919050565b620002e583620002a8565b620002fd620002f482620002d0565b8484546200023e565b825550505050565b600090565b6200031462000305565b62000321818484620002da565b505050565b5b8181101562000349576200033d6000826200030a565b60018101905062000327565b5050565b601f821115620003985762000362816200020c565b6200036d8462000221565b810160208510156200037d578190505b620003956200038c8562000221565b83018262000326565b50505b505050565b600082821c905092915050565b6000620003bd600019846008026200039d565b1980831691505092915050565b6000620003d88383620003aa565b9150826002028217905092915050565b620003f3826200016e565b67ffffffffffffffff8111156200040f576200040e62000179565b5b6200041b8254620001d7565b620004288282856200034d565b600060209050601f8311600181146200046057600084156200044b578287015190505b620004578582620003ca565b865550620004c7565b601f19841662000470866200020c565b60005b828110156200049a5784890151825560018201915060208501945060208101905062000473565b86831015620004ba5784890151620004b6601f891682620003aa565b8355505b6001600288020188555050505b505050505050565b6000604051905090565b600080fd5b600080fd5b600080fd5b600080fd5b6000601f19601f8301169050919050565b6200050982620004ed565b810181811067ffffffffffffffff821117156200052b576200052a62000179565b5b80604052505050565b600062000540620004cf565b90506200054e8282620004fe565b919050565b600067ffffffffffffffff82111562000571576200057062000179565b5b6200057c82620004ed565b9050602081019050919050565b60005b83811015620005a95780820151818401526020810190506200058c565b60008484015250505050565b6000620005cc620005c68462000553565b62000534565b905082815260208101848484011115620005eb57620005ea620004e8565b5b620005f884828562000589565b509392505050565b600082601f830112620006185762000617620004e3565b5b81516200062a848260208601620005b5565b91505092915050565b6000602082840312156200064c576200064b620004d9565b5b600082015167ffffffffffffffff8111156200066d576200066c620004de565b5b6200067b8482850162000600565b91505092915050565b611f5380620006946000396000f3fe6080604052600436106101095760003560e01c80638da5cb5b11610095578063a22cb46511610064578063a22cb46514610349578063b88d4fde14610372578063c87b56dd1461038e578063e456b01c146103cb578063e985e9c5146103f657610109565b80638da5cb5b146102ac57806395363731146102d757806395d89b4114610302578063a0712d681461032d57610109565b806318160ddd116100dc57806318160ddd146101cf57806323b872dd146101fa57806342842e0e146102165780636352211e1461023257806370a082311461026f57610109565b806301ffc9a71461010e57806306fdde031461014b578063081812fc14610176578063095ea7b3146101b3575b600080fd5b34801561011a57600080fd5b50610135600480360381019061013091906116a5565b610433565b60405161014291906116ed565b60405180910390f35b34801561015757600080fd5b506101606104c5565b60405161016d9190611798565b60405180910390f35b34801561018257600080fd5b5061019d600480360381019061019891906117f0565b610557565b6040516101aa919061185e565b60405180910390f35b6101cd60048036038101906101c891906118a5565b6105d6565b005b3480156101db57600080fd5b506101e461071a565b6040516101f191906118f4565b60405180910390f35b610214600480360381019061020f919061190f565b610731565b005b610230600480360381019061022b919061190f565b610a53565b005b34801561023e57600080fd5b50610259600480360381019061025491906117f0565b610a73565b604051610266919061185e565b60405180910390f35b34801561027b57600080fd5b5061029660048036038101906102919190611962565b610a85565b6040516102a391906118f4565b60405180910390f35b3480156102b857600080fd5b506102c1610b3d565b6040516102ce919061185e565b60405180910390f35b3480156102e357600080fd5b506102ec610b63565b6040516102f99190611798565b60405180910390f35b34801561030e57600080fd5b50610317610bf5565b6040516103249190611798565b60405180910390f35b610347600480360381019061034291906117f0565b610c87565b005b34801561035557600080fd5b50610370600480360381019061036b91906119bb565b610d7b565b005b61038c60048036038101906103879190611b30565b610e86565b005b34801561039a57600080fd5b506103b560048036038101906103b091906117f0565b610ef9565b6040516103c29190611798565b60405180910390f35b3480156103d757600080fd5b506103e0610f97565b6040516103ed91906118f4565b60405180910390f35b34801561040257600080fd5b5061041d60048036038101906104189190611bb3565b610f9d565b60405161042a91906116ed565b60405180910390f35b60006301ffc9a760e01b827bffffffffffffffffffffffffffffffffffffffffffffffffffffffff1916148061048e57506380ac58cd60e01b827bffffffffffffffffffffffffffffffffffffffffffffffffffffffff1916145b806104be5750635b5e139f60e01b827bffffffffffffffffffffffffffffffffffffffffffffffffffffffff1916145b9050919050565b6060600280546104d490611c22565b80601f016020809104026020016040519081016040528092919081815260200182805461050090611c22565b801561054d5780601f106105225761010080835404028352916020019161054d565b820191906000526020600020905b81548152906001019060200180831161053057829003601f168201915b5050505050905090565b600061056282611031565b610598576040517fcf4700e400000000000000000000000000000000000000000000000000000000815260040160405180910390fd5b6006600083815260200190815260200160002060000160009054906101000a900473ffffffffffffffffffffffffffffffffffffffff169050919050565b60006105e182610a73565b90508073ffffffffffffffffffffffffffffffffffffffff16610602611090565b73ffffffffffffffffffffffffffffffffffffffff16146106655761062e81610629611090565b610f9d565b610664576040517fcfb3b94200000000000000000000000000000000000000000000000000000000815260040160405180910390fd5b5b826006600084815260200190815260200160002060000160006101000a81548173ffffffffffffffffffffffffffffffffffffffff021916908373ffffffffffffffffffffffffffffffffffffffff160217905550818373ffffffffffffffffffffffffffffffffffffffff168273ffffffffffffffffffffffffffffffffffffffff167f8c5be1e5ebec7d5bd14f71427d1e84f3dd0314c0f7b2291e5b200ac8c7c3b92560405160405180910390a4505050565b6000610724611098565b6001546000540303905090565b600061073c8261109d565b90508373ffffffffffffffffffffffffffffffffffffffff168173ffffffffffffffffffffffffffffffffffffffff16146107a3576040517fa114810000000000000000000000000000000000000000000000000000000000815260040160405180910390fd5b6000806107af84611169565b915091506107c581876107c0611090565b611190565b610811576107da866107d5611090565b610f9d565b610810576040517f59c896be00000000000000000000000000000000000000000000000000000000815260040160405180910390fd5b5b600073ffffffffffffffffffffffffffffffffffffffff168573ffffffffffffffffffffffffffffffffffffffff1603610877576040517fea553b3400000000000000000000000000000000000000000000000000000000815260040160405180910390fd5b61088486868660016111d4565b801561088f57600082555b600560008773ffffffffffffffffffffffffffffffffffffffff1673ffffffffffffffffffffffffffffffffffffffff168152602001908152602001600020600081546001900391905081905550600560008673ffffffffffffffffffffffffffffffffffffffff1673ffffffffffffffffffffffffffffffffffffffff168152602001908152602001600020600081546001019190508190555061095d856109398888876111da565b7c020000000000000000000000000000000000000000000000000000000017611202565b600460008681526020019081526020016000208190555060007c02000000000000000000000000000000000000000000000000000000008416036109e357600060018501905060006004600083815260200190815260200160002054036109e15760005481146109e0578360046000838152602001908152602001600020819055505b5b505b838573ffffffffffffffffffffffffffffffffffffffff168773ffffffffffffffffffffffffffffffffffffffff167fddf252ad1be2c89b69c2b068fc378daa952ba7f163c4a11628f55a4df523b3ef60405160405180910390a4610a4b868686600161122d565b505050505050565b610a6e83838360405180602001604052806000815250610e86565b505050565b6000610a7e8261109d565b9050919050565b60008073ffffffffffffffffffffffffffffffffffffffff168273ffffffffffffffffffffffffffffffffffffffff1603610aec576040517f8f4eb60400000000000000000000000000000000000000000000000000000000815260040160405180910390fd5b67ffffffffffffffff600560008473ffffffffffffffffffffffffffffffffffffffff1673ffffffffffffffffffffffffffffffffffffffff16815260200190815260200160002054169050919050565b600860009054906101000a900473ffffffffffffffffffffffffffffffffffffffff1681565b6060600a8054610b7290611c22565b80601f0160208091040260200160405190810160405280929190818152602001828054610b9e90611c22565b8015610beb5780601f10610bc057610100808354040283529160200191610beb565b820191906000526020600020905b815481529060010190602001808311610bce57829003601f168201915b5050505050905090565b606060038054610c0490611c22565b80601f0160208091040260200160405190810160405280929190818152602001828054610c3090611c22565b8015610c7d5780601f10610c5257610100808354040283529160200191610c7d565b820191906000526020600020905b815481529060010190602001808311610c6057829003601f168201915b5050505050905090565b600860009054906101000a900473ffffffffffffffffffffffffffffffffffffffff1673ffffffffffffffffffffffffffffffffffffffff163373ffffffffffffffffffffffffffffffffffffffff1614610d17576040517f08c379a0000000000000000000000000000000000000000000000000000000008152600401610d0e90611cc5565b60405180910390fd5b60095481610d2361071a565b610d2d9190611d14565b1115610d6e576040517f08c379a0000000000000000000000000000000000000000000000000000000008152600401610d6590611dba565b60405180910390fd5b610d783382611233565b50565b8060076000610d88611090565b73ffffffffffffffffffffffffffffffffffffffff1673ffffffffffffffffffffffffffffffffffffffff16815260200190815260200160002060008473ffffffffffffffffffffffffffffffffffffffff1673ffffffffffffffffffffffffffffffffffffffff16815260200190815260200160002060006101000a81548160ff0219169083151502179055508173ffffffffffffffffffffffffffffffffffffffff16610e35611090565b73ffffffffffffffffffffffffffffffffffffffff167f17307eab39ab6107e8899845ad3d59bd9653f200f220920489ca2b5937696c3183604051610e7a91906116ed565b60405180910390a35050565b610e91848484610731565b60008373ffffffffffffffffffffffffffffffffffffffff163b14610ef357610ebc848484846113ee565b610ef2576040517fd1a57ed600000000000000000000000000000000000000000000000000000000815260040160405180910390fd5b5b50505050565b6060610f0482611031565b610f3a576040517fa14c4b5000000000000000000000000000000000000000000000000000000000815260040160405180910390fd5b6000610f4461153e565b90506000815103610f645760405180602001604052806000815250610f8f565b80610f6e846115d0565b604051602001610f7f929190611e16565b6040516020818303038152906040525b915050919050565b60095481565b6000600760008473ffffffffffffffffffffffffffffffffffffffff1673ffffffffffffffffffffffffffffffffffffffff16815260200190815260200160002060008373ffffffffffffffffffffffffffffffffffffffff1673ffffffffffffffffffffffffffffffffffffffff16815260200190815260200160002060009054906101000a900460ff16905092915050565b60008161103c611098565b1115801561104b575060005482105b8015611089575060007c0100000000000000000000000000000000000000000000000000000000600460008581526020019081526020016000205416145b9050919050565b600033905090565b600090565b600080829050806110ac611098565b11611132576000548110156111315760006004600083815260200190815260200160002054905060007c010000000000000000000000000000000000000000000000000000000082160361112f575b600081036111255760046000836001900393508381526020019081526020016000205490506110fb565b8092505050611164565b505b5b6040517fdf2d9b4200000000000000000000000000000000000000000000000000000000815260040160405180910390fd5b919050565b60008060006006600085815260200190815260200160002090508092508254915050915091565b600073ffffffffffffffffffffffffffffffffffffffff8316925073ffffffffffffffffffffffffffffffffffffffff821691508382148383141790509392505050565b50505050565b60008060e883901c905060e86111f1868684611620565b62ffffff16901b9150509392505050565b600073ffffffffffffffffffffffffffffffffffffffff83169250814260a01b178317905092915050565b50505050565b60008054905060008203611273576040517fb562e8dd00000000000000000000000000000000000000000000000000000000815260040160405180910390fd5b61128060008483856111d4565b600160406001901b178202600560008573ffffffffffffffffffffffffffffffffffffffff1673ffffffffffffffffffffffffffffffffffffffff168152602001908152602001600020600082825401925050819055506112f7836112e860008660006111da565b6112f185611629565b17611202565b6004600083815260200190815260200160002081905550600080838301905073ffffffffffffffffffffffffffffffffffffffff85169150828260007fddf252ad1be2c89b69c2b068fc378daa952ba7f163c4a11628f55a4df523b3ef600080a4600183015b81811461139857808360007fddf252ad1be2c89b69c2b068fc378daa952ba7f163c4a11628f55a4df523b3ef600080a460018101905061135d565b50600082036113d3576040517f2e07630000000000000000000000000000000000000000000000000000000000815260040160405180910390fd5b8060008190555050506113e9600084838561122d565b505050565b60008373ffffffffffffffffffffffffffffffffffffffff1663150b7a02611414611090565b8786866040518563ffffffff1660e01b81526004016114369493929190611e8f565b6020604051808303816000875af192505050801561147257506040513d601f19601f8201168201806040525081019061146f9190611ef0565b60015b6114eb573d80600081146114a2576040519150601f19603f3d011682016040523d82523d6000602084013e6114a7565b606091505b5060008151036114e3576040517fd1a57ed600000000000000000000000000000000000000000000000000000000815260040160405180910390fd5b805181602001fd5b63150b7a0260e01b7bffffffffffffffffffffffffffffffffffffffffffffffffffffffff1916817bffffffffffffffffffffffffffffffffffffffffffffffffffffffff191614915050949350505050565b6060600b805461154d90611c22565b80601f016020809104026020016040519081016040528092919081815260200182805461157990611c22565b80156115c65780601f1061159b576101008083540402835291602001916115c6565b820191906000526020600020905b8154815290600101906020018083116115a957829003601f168201915b5050505050905090565b606060a060405101806040526020810391506000825281835b60011561160b57600184039350600a81066030018453600a81049050806115e9575b50828103602084039350808452505050919050565b60009392505050565b60006001821460e11b9050919050565b6000604051905090565b600080fd5b600080fd5b60007fffffffff0000000000000000000000000000000000000000000000000000000082169050919050565b6116828161164d565b811461168d57600080fd5b50565b60008135905061169f81611679565b92915050565b6000602082840312156116bb576116ba611643565b5b60006116c984828501611690565b91505092915050565b60008115159050919050565b6116e7816116d2565b82525050565b600060208201905061170260008301846116de565b92915050565b600081519050919050565b600082825260208201905092915050565b60005b83811015611742578082015181840152602081019050611727565b60008484015250505050565b6000601f19601f8301169050919050565b600061176a82611708565b6117748185611713565b9350611784818560208601611724565b61178d8161174e565b840191505092915050565b600060208201905081810360008301526117b2818461175f565b905092915050565b6000819050919050565b6117cd816117ba565b81146117d857600080fd5b50565b6000813590506117ea816117c4565b92915050565b60006020828403121561180657611805611643565b5b6000611814848285016117db565b91505092915050565b600073ffffffffffffffffffffffffffffffffffffffff82169050919050565b60006118488261181d565b9050919050565b6118588161183d565b82525050565b6000602082019050611873600083018461184f565b92915050565b6118828161183d565b811461188d57600080fd5b50565b60008135905061189f81611879565b92915050565b600080604083850312156118bc576118bb611643565b5b60006118ca85828601611890565b92505060206118db858286016117db565b9150509250929050565b6118ee816117ba565b82525050565b600060208201905061190960008301846118e5565b92915050565b60008060006060848603121561192857611927611643565b5b600061193686828701611890565b935050602061194786828701611890565b9250506040611958868287016117db565b9150509250925092565b60006020828403121561197857611977611643565b5b600061198684828501611890565b91505092915050565b611998816116d2565b81146119a357600080fd5b50565b6000813590506119b58161198f565b92915050565b600080604083850312156119d2576119d1611643565b5b60006119e085828601611890565b92505060206119f1858286016119a6565b9150509250929050565b600080fd5b600080fd5b7f4e487b7100000000000000000000000000000000000000000000000000000000600052604160045260246000fd5b611a3d8261174e565b810181811067ffffffffffffffff82111715611a5c57611a5b611a05565b5b80604052505050565b6000611a6f611639565b9050611a7b8282611a34565b919050565b600067ffffffffffffffff821115611a9b57611a9a611a05565b5b611aa48261174e565b9050602081019050919050565b82818337600083830152505050565b6000611ad3611ace84611a80565b611a65565b905082815260208101848484011115611aef57611aee611a00565b5b611afa848285611ab1565b509392505050565b600082601f830112611b1757611b166119fb565b5b8135611b27848260208601611ac0565b91505092915050565b60008060008060808587031215611b4a57611b49611643565b5b6000611b5887828801611890565b9450506020611b6987828801611890565b9350506040611b7a878288016117db565b925050606085013567ffffffffffffffff811115611b9b57611b9a611648565b5b611ba787828801611b02565b91505092959194509250565b60008060408385031215611bca57611bc9611643565b5b6000611bd885828601611890565b9250506020611be985828601611890565b9150509250929050565b7f4e487b7100000000000000000000000000000000000000000000000000000000600052602260045260246000fd5b60006002820490506001821680611c3a57607f821691505b602082108103611c4d57611c4c611bf3565b5b50919050565b7f5468697320616374696f6e2063616e206f6e6c7920626520706572666f726d6560008201527f6420627920746865204f776e6572210000000000000000000000000000000000602082015250565b6000611caf602f83611713565b9150611cba82611c53565b604082019050919050565b60006020820190508181036000830152611cde81611ca2565b9050919050565b7f4e487b7100000000000000000000000000000000000000000000000000000000600052601160045260246000fd5b6000611d1f826117ba565b9150611d2a836117ba565b9250828201905080821115611d4257611d41611ce5565b5b92915050565b7f536f7272792120596f752063616e206e6f74206d696e74206d6f72652074686160008201527f6e2035204e465473000000000000000000000000000000000000000000000000602082015250565b6000611da4602883611713565b9150611daf82611d48565b604082019050919050565b60006020820190508181036000830152611dd381611d97565b9050919050565b600081905092915050565b6000611df082611708565b611dfa8185611dda565b9350611e0a818560208601611724565b80840191505092915050565b6000611e228285611de5565b9150611e2e8284611de5565b91508190509392505050565b600081519050919050565b600082825260208201905092915050565b6000611e6182611e3a565b611e6b8185611e45565b9350611e7b818560208601611724565b611e848161174e565b840191505092915050565b6000608082019050611ea4600083018761184f565b611eb1602083018661184f565b611ebe60408301856118e5565b8181036060830152611ed08184611e56565b905095945050505050565b600081519050611eea81611679565b92915050565b600060208284031215611f0657611f05611643565b5b6000611f1484828501611edb565b9150509291505056fea264697066735822122004c32ad01e1ec5e4141290d0b1aeacb607d2d5007034212520f5108b5ff683e664736f6c6343000812003368747470733a2f2f676174657761792e70696e6174612e636c6f75642f697066732f516d617a65635a4b4c3868576232755450354a7965744a636275656f74774c613271325061797a367531436577542f",
  "linkReferences": {},
  "deployedLinkReferences": {}
}